:020000040000FA
:040000006BEF00F0B2
:100008002282F6CF09F0F7CF0AF0F8CF0BF0F5CF40
:100018000CF09EAA12EF00F014EF00F061EF00F070
:1000280089EC0AF00D6E82740D50BCEC09F04C0E90
:100038000D18D8A422EF00F024EF00F03EEF00F0F6
:10004800E5EC09F00D0E086EFC0EE82EFED7082E22
:10005800FCD7010E016E030E56EC09F0650E046E16
:10006800100E056E4FEC0AF05A0E026E100E036E5B
:100078006CEC0AF0440E0D18D8A445EF00F047EFD9
:1000880000F061EF00F0E5EC09F00D0E086EFC0ED3
:10009800E82EFED7082EFCD7010E016E030E56EC93
:1000A80009F0430E046E100E056E4FEC0AF0350E83
:1000B800026E100E036E6CEC0AF00CC0F5FF0BC05C
:1000C800F8FF0AC0F7FF09C0F6FF229211009EEF61
:0200D8000AF02C
:101000000041542B554152543D3131353230302C52
:10101000302C300D0A0041542B4E414D453D484384
:101020002D30350D0A0041542B505357443D313279
:1010300033340D0A004465736C696761646F202165
:101040000D0A004465736C696761646F202100417B
:10105000542B52455345540D0A004C696761646F27
:1010600020210D0A004C696761646F202100415402
:101070000D0A0000000E956E94909492000E836EFF
:1010800082928290000E0F6E000E0E6E0E4A0F2A94
:101090000F5009E1640E0E5CD8A051EF08F053EF39
:1010A00008F046EF08F0010E836E82928280000EF7
:1010B0000F6E000E0E6E0E4A0F2A0F5009E1640EDD
:1010C0000E5CD8A066EF08F068EF08F05BEF08F060
:1010D0008290000E0F6E000E0E6E0E4A0F2A100E3A
:1010E0000E5C270E0F58D8A078EF08F07AEF08F0C2
:1010F0006DEF08F0380E836E82928280000E0F6EC4
:10110000000E0E6E0E4A0F2A0F5009E1640E0E5C9F
:10111000D8A08DEF08F08FEF08F082EF08F08290F2
:10112000000E0F6E000E0E6E0E4A0F2A0F5009E1D0
:10113000C80E0E5CD8A09FEF08F0A1EF08F094EF66
:1011400008F00E0E836E82928280000E0F6E000EEB
:101150000E6E0E4A0F2A0F5009E1640E0E5CD8A0E5
:10116000B4EF08F0B6EF08F0A9EF08F08290000E97
:101170000F6E000E0E6E0E4A0F2A0F5009E1C80EB8
:101180000E5CD8A0C6EF08F0C8EF08F0BBEF08F07F
:10119000060E836E82928280000E0F6E000E0E6E1F
:1011A0000E4A0F2A0F5009E1640E0E5CD8A0DBEF47
:1011B00008F0DDEF08F0D0EF08F08290000E0F6E1F
:1011C000000E0E6E0E4A0F2A0F5009E1C80E0E5C7B
:1011D000D8A0EDEF08F0EFEF08F0E2EF08F0120012
:1011E000126E000E116E000E106E1204D8A4FBEFEA
:1011F00008F0FDEF08F001EF09F0000E116E28EF86
:1012000009F0020E1218D8A408EF09F00AEF09F04D
:101210000EEF09F0400E116E28EF09F0030E1218C0
:10122000D8A415EF09F017EF09F01BEF09F0140E21
:10123000116E28EF09F0040E1218D8A422EF09F05D
:1012400024EF09F028EF09F0540E116E28EF09F091
:1012500011500E240F6E0F04106E10508009836E13
:1012600082928280000E146E000E136E134A142AAE
:10127000145009E1640E135CD8A041EF09F043EF6C
:1012800009F036EF09F08290000E146E000E136E16
:10129000134A142A145009E1C80E135CD8A053EF66
:1012A00009F055EF09F048EF09F01200056E000E45
:1012B000046E000E036E0504D8A461EF09F063EF1D
:1012C00009F067EF09F0000E046E8EEF09F0020ED0
:1012D0000518D8A46EEF09F070EF09F074EF09F06B
:1012E000400E046E8EEF09F0030E0518D8A47BEFB4
:1012F00009F07DEF09F081EF09F0140E046E8EEF16
:1013000009F0040E0518D8A488EF09F08AEF09F057
:101310008EEF09F0540E046E8EEF09F00450012494
:10132000026E0204036E03508009836E82928280F3
:10133000000E076E000E066E064A072A075009E1E6
:10134000640E065CD8A0A7EF09F0A9EF09F09CEFA6
:1013500009F08290000E076E000E066E064A072AFC
:10136000075009E1C80E065CD8A0B9EF09F0BBEF41
:1013700009F0AEEF09F01200016E01C083FF828216
:101380008280000E036E000E026E024A032A035092
:1013900009E1640E025CD8A0D0EF09F0D2EF09F0A9
:1013A000C5EF09F08290000E036E000E026E024A35
:1013B000032A035009E1C80E025CD8A0E2EF09F04D
:1013C000E4EF09F0D7EF09F01200010E836E82926C
:1013D0008280000E026E000E016E014A022A025047
:1013E00009E1640E015CD8A0F8EF09F0FAEF09F00A
:1013F000EDEF09F08290000E026E000E016E014AC0
:10140000022A025009E1C80E015CD8A00AEF0AF0D6
:101410000CEF0AF0FFEF09F01200010E0F01386F18
:10142000000E396F000E3A6F000E3B6F9494948C4F
:10143000948E30EC0AF03AEC08F03C0ED36E070EB6
:10144000D26E000E9B6ED09EF28EF28C9D8A010EA3
:101450000E6E010EF0EC08F02CEF0AF06BEF00F0CE
:10146000080EB86E900EAB6E240EAC6E2A0EAF6EE8
:10147000000EB06E000E0E6E000E0F6EB9EC0AF08C
:10148000000E0E6E000E0F6EB4EC0AF0000E0E6E23
:10149000000E0F6EBEEC0AF0000E1A6E12005CEF2A
:1014A0000AF004C0F6FF05C0F7FFF86A0800F5501F
:1014B000BCEC09F0044A052A04C0F6FF05C0F7FF9A
:1014C000F86A0800F5500009D8A469EF0AF06BEF3C
:1014D0000AF051EF0AF0120079EF0AF002C0F6FFAD
:1014E00003C0F7FFF86A0800F550A9EC0AF0024AB9
:1014F000032A02C0F6FF03C0F7FFF86A0800F550A0
:101500000009D8A486EF0AF088EF0AF06EEF0AF01F
:1015100012009EAA8EEF0AF090EF0AF089EF0AF00F
:10152000000E1A6EABA297EF0AF099EF0AF09CEF4B
:101530000AF0AB9800F0AB88AE50120000EE15F048
:10154000070EEE6AE806FDE12290229200010DEFFF
:101550000AF0016E9EA8AFEF0AF0B1EF0AF0AAEF11
:101560000AF001C0ADFF12000EC01EF00FC01FF048
:1015700012000EC020F00FC021F012000EC01CF0AF
:061580000FC01DF0120077
:020000040020DA
:08000000FFFFFFFFFFFFFFFF00
:020000040030CA
:0E000000FF22193CFFA881FF0FC00FE00F4048
:00000001FF
