:020000040000FA
:040000006BEF00F0B2
:100008002282F6CF09F0F7CF0AF0F8CF0BF0F5CF40
:100018000CF09EAA12EF00F014EF00F061EF00F070
:1000280067EC0AF00D6E82740D509AEC09F04C0ED4
:100038000D18D8A422EF00F024EF00F03EEF00F0F6
:10004800C3EC09F00D0E086EFC0EE82EFED7082E44
:10005800FCD7010E016E030E34EC09F0260E046E77
:10006800100E056E2DEC0AF01B0E026E100E036EBC
:100078004AEC0AF0440E0D18D8A445EF00F047EFFB
:1000880000F061EF00F0C3EC09F00D0E086EFC0EF5
:10009800E82EFED7082EFCD7010E016E030E34ECB5
:1000A80009F00F0E046E100E056E2DEC0AF0010E0D
:1000B800026E100E036E4AEC0AF00CC0F5FF0BC07E
:1000C800F8FF0AC0F7FF09C0F6FF229211007CEF83
:0200D8000AF02C
:10100000004465736C696761646F20210D0A0044B8
:1010100065736C696761646F2021004C6967616466
:101020006F20210D0A004C696761646F2021000068
:10103000000E956E94909492000E836E8292829030
:10104000000E0F6E000E0E6E0E4A0F2A0F5009E1B1
:10105000640E0E5CD8A02FEF08F031EF08F024EFFB
:1010600008F0010E836E82928280000E0F6E000ED9
:101070000E6E0E4A0F2A0F5009E1640E0E5CD8A0C6
:1010800044EF08F046EF08F039EF08F08290000EC8
:101090000F6E000E0E6E0E4A0F2A100E0E5C270EFB
:1010A0000F58D8A056EF08F058EF08F04BEF08F0B3
:1010B000380E836E82928280000E0F6E000E0E6ECE
:1010C0000E4A0F2A0F5009E1640E0E5CD8A06BEF98
:1010D00008F06DEF08F060EF08F08290000E0F6EE0
:1010E000000E0E6E0E4A0F2A0F5009E1C80E0E5C5C
:1010F000D8A07DEF08F07FEF08F072EF08F00E0E39
:10110000836E82928280000E0F6E000E0E6E0E4A6B
:101110000F2A0F5009E1640E0E5CD8A092EF08F080
:1011200094EF08F087EF08F08290000E0F6E000E2B
:101130000E6E0E4A0F2A0F5009E1C80E0E5CD8A0A1
:10114000A4EF08F0A6EF08F099EF08F0060E836E02
:1011500082928280000E0F6E000E0E6E0E4A0F2AD3
:101160000F5009E1640E0E5CD8A0B9EF08F0BBEF98
:1011700008F0AEEF08F08290000E0F6E000E0E6EBB
:101180000E4A0F2A0F5009E1C80E0E5CD8A0CBEF13
:1011900008F0CDEF08F0C0EF08F01200126E000E5C
:1011A000116E000E106E1204D8A4D9EF08F0DBEF18
:1011B00008F0DFEF08F0000E116E06EF09F0020EE6
:1011C0001218D8A4E6EF08F0E8EF08F0ECEF08F00A
:1011D000400E116E06EF09F0030E1218D8A4F3EFBB
:1011E00008F0F5EF08F0F9EF08F0140E116E06EFB5
:1011F00009F0040E1218D8A400EF09F002EF09F06C
:1012000006EF09F0540E116E06EF09F011500E248E
:101210000F6E0F04106E10508009836E82928280D0
:10122000000E146E000E136E134A142A145009E1B6
:10123000640E135CD8A01FEF09F021EF09F014EF42
:1012400009F08290000E146E000E136E134A142AD9
:10125000145009E1C80E135CD8A031EF09F033EF48
:1012600009F026EF09F01200056E000E046E000E64
:10127000036E0504D8A43FEF09F041EF09F045EFF4
:1012800009F0000E046E6CEF09F0020E0518D8A4E8
:101290004CEF09F04EEF09F052EF09F0400E046EEA
:1012A0006CEF09F0030E0518D8A459EF09F05BEFB5
:1012B00009F05FEF09F0140E046E6CEF09F0040EF4
:1012C0000518D8A466EF09F068EF09F06CEF09F093
:1012D000540E046E6CEF09F004500124026E0204F7
:1012E000036E03508009836E82928280000E076E27
:1012F000000E066E064A072A075009E1640E065CD6
:10130000D8A085EF09F087EF09F07AEF09F0829015
:10131000000E076E000E066E064A072A075009E106
:10132000C80E065CD8A097EF09F099EF09F08CEF92
:1013300009F01200016E01C083FF82828280000EDC
:10134000036E000E026E024A032A035009E1640E86
:10135000025CD8A0AEEF09F0B0EF09F0A3EF09F0FE
:101360008290000E036E000E026E024A032A0350A2
:1013700009E1C80E025CD8A0C0EF09F0C2EF09F085
:10138000B5EF09F01200010E836E82928280000E8A
:10139000026E000E016E014A022A025009E1640E3B
:1013A000015CD8A0D6EF09F0D8EF09F0CBEF09F037
:1013B0008290000E026E000E016E014A022A025057
:1013C00009E1C80E015CD8A0E8EF09F0EAEF09F0E6
:1013D000DDEF09F01200010E0F01386F000E396FBA
:1013E000000E3A6F000E3B6F9494948C948E0EEC2A
:1013F0000AF018EC08F03C0ED36E070ED26E000E09
:101400009B6ED09EF28EF28C9D8A010E0E6E010EA6
:10141000CEEC08F00AEF0AF06BEF00F0080EB86EA1
:10142000900EAB6E240EAC6E2A0EAF6E000EB06E38
:10143000000E0E6E000E0F6E97EC0AF0000E0E6E90
:10144000000E0F6E92EC0AF0000E0E6E000E0F6E84
:101450009CEC0AF0000E1A6E12003AEF0AF004C07B
:10146000F6FF05C0F7FFF86A0800F5509AEC09F09E
:10147000044A052A04C0F6FF05C0F7FFF86A080011
:10148000F5500009D8A447EF0AF049EF0AF02FEF12
:101490000AF0120057EF0AF002C0F6FF03C0F7FF90
:1014A000F86A0800F55087EC0AF0024A032A02C0E5
:1014B000F6FF03C0F7FFF86A0800F5500009D8A44A
:1014C00064EF0AF066EF0AF04CEF0AF012009EAAF1
:1014D0006CEF0AF06EEF0AF067EF0AF0000E1A6E7A
:1014E000ABA275EF0AF077EF0AF07AEF0AF0AB984B
:1014F00000F0AB88AE50120000EE15F0070EEE6A59
:10150000E806FDE1229022920001EBEF09F0016E66
:101510009EA88DEF0AF08FEF0AF088EF0AF001C065
:10152000ADFF12000EC01EF00FC01FF012000EC063
:1015300020F00FC021F012000EC01CF00FC01DF0F3
:02154000120097
:020000040020DA
:08000000FFFFFFFFFFFFFFFF00
:020000040030CA
:0E000000FF22193CFFA881FF0FC00FE00F4048
:00000001FF
