:020000040000FA
:0400000092EF09F082
:10100000004775737461766F20536F61726573006A
:0110100000DF
:10101200000E956E94909492000E836E829282904E
:10102200000E026E000E016E014A022A025009E110
:10103200640E015CD8A020EF08F022EF08F015EF53
:1010420008F0010E836E82928280000E026E000E04
:10105200016E014A022A025009E1640E015CD8A025
:1010620035EF08F037EF08F02AEF08F08290000E13
:10107200026E000E016E014A022A100E015C270E5A
:101082000258D8A047EF08F049EF08F03CEF08F00B
:10109200380E836E82928280000E026E000E016E06
:1010A200014A022A025009E1640E015CD8A05CEFF9
:1010B20008F05EEF08F051EF08F08290000E026E29
:1010C200000E016E014A022A025009E1C80E015CBB
:1010D200D8A06EEF08F070EF08F063EF08F00E0E84
:1010E200836E82928280000E026E000E016E014AB1
:1010F200022A025009E1640E015CD8A083EF08F0D5
:1011020085EF08F078EF08F08290000E026E000E74
:10111200016E014A022A025009E1C80E015CD8A000
:1011220095EF08F097EF08F08AEF08F0060E836E4D
:1011320082928280000E026E000E016E014A022A25
:10114200025009E1640E015CD8A0AAEF08F0ACEFEE
:1011520008F09FEF08F08290000E026E000E016E02
:10116200014A022A025009E1C80E015CD8A0BCEF74
:1011720008F0BEEF08F0B1EF08F01200056E000EA5
:10118200046E000E036E0504D8A4CAEF08F0CCEF7B
:1011920008F0D0EF08F0000E046EF7EF08F0020E30
:1011A2000518D8A4D7EF08F0D9EF08F0DDEF08F062
:1011B200400E046EF7EF08F0030E0518D8A4E4EF12
:1011C20008F0E6EF08F0EAEF08F0140E046EF7EF0D
:1011D20008F0040E0518D8A4F1EF08F0F3EF08F0B8
:1011E200F7EF08F0540E046EF7EF08F004500124F4
:1011F200026E0204036E03508009836E8292828023
:10120200000E076E000E066E064A072A075009E115
:10121200640E065CD8A010EF09F012EF09F005EF9A
:1012220009F08290000E076E000E066E064A072A2B
:10123200075009E1C80E065CD8A022EF09F024EF9E
:1012420009F017EF09F01200010E0F01386F000EBE
:10125200396F000E3A6F000E3B6F9494829409EC42
:1012620008F0040E016E010EBFEC08F0010E046ED0
:10127200100E056E77EC09F082741A0E096E5E0E7E
:10128200086E6E0EE82EFED7082EFCD7092EFAD76E
:1012920000D03DEF09F000EF00F0016E01C083FFC6
:1012A20082828280000E036E000E026E024A032AC0
:1012B200035009E1640E025CD8A062EF09F064EF0A
:1012C20009F057EF09F08290000E036E000E026ED5
:1012D200024A032A035009E1C80E025CD8A074EF47
:1012E20009F076EF09F069EF09F0120083EF09F0D7
:1012F20004C0F6FF05C0F7FF0800F5504EEC09F0F8
:10130200044A052A04C0F6FF05C0F7FF0800F5509D
:101312000009D8A48FEF09F091EF09F079EF09F0F5
:101322001200000EF86E100EF76E000125EF09F0A4
:020000040020DA
:08000000FFFFFFFFFFFFFFFF00
:020000040030CA
:0E000000FF22193CFFA881FF0FC00FE00F4048
:00000001FF
