:020000040000FA
:040000006CEF00F0B1
:100008002B82F2A20AEF00F00CEF00F06AEF00F08A
:10001800000E146E000E136E82742A282A6E2AC0EF
:1000280007F0086A000E0A6E640E096E8DEC09F07E
:100038000750296E000E046E640E036E2AC001F08C
:10004800026AEFEC09F001C007F002C008F0000EE8
:100058000A6E0A0E096E8DEC09F00750286E000E24
:10006800046E640E036E2AC001F0026AEFEC09F018
:1000780001C015F002C016F015C001F016C002F05C
:10008800000E046E0A0E036EEFEC09F00150276EA5
:10009800090E016E030E27EC09F02950300FD5EC3C
:1000A8000AF02850300FD5EC0AF02750300FD5EC65
:1000B8000AF00D0E106EAF0E0F6EB60EE82EFED7BC
:1000C8000F2EFCD7102EFAD700D0F2922B921100E7
:0400D800FEEF0AF03D
:1010000000436F6E7461646F722064652070616C60
:101010006D61733A0000000E956E94909492000EEC
:10102000836E82928290000E186E000E176E174A21
:10103000182A185009E1640E175CD8A022EF08F0B6
:1010400024EF08F017EF08F0010E836E8292828081
:10105000000E186E000E176E174A182A185009E174
:10106000640E175CD8A037EF08F039EF08F02CEFCA
:1010700008F08290000E186E000E176E174A182A9C
:10108000100E175C270E1858D8A049EF08F04BEF48
:1010900008F03EEF08F0380E836E82928280000ED8
:1010A000186E000E176E174A182A185009E1640EC0
:1010B000175CD8A05EEF08F060EF08F053EF08F07F
:1010C0008290000E186E000E176E174A182A1850DC
:1010D00009E1C80E175CD8A070EF08F072EF08F0B5
:1010E00065EF08F00E0E836E82928280000E186EFD
:1010F000000E176E174A182A185009E1640E175C83
:10110000D8A085EF08F087EF08F07AEF08F082901A
:10111000000E186E000E176E174A182A185009E1B3
:10112000C80E175CD8A097EF08F099EF08F08CEF85
:1011300008F0060E836E82928280000E186E000EFA
:10114000176E174A182A185009E1640E175CD8A0C8
:10115000ACEF08F0AEEF08F0A1EF08F08290000EBF
:10116000186E000E176E174A182A185009E1C80E9B
:10117000175CD8A0BEEF08F0C0EF08F0B3EF08F09E
:1011800012001B6E000E1A6E000E196E1B04D8A4FE
:10119000CCEF08F0CEEF08F0D2EF08F0000E1A6E98
:1011A000F9EF08F0020E1B18D8A4D9EF08F0DBEF16
:1011B00008F0DFEF08F0400E1A6EF9EF08F0030EAA
:1011C0001B18D8A4E6EF08F0E8EF08F0ECEF08F001
:1011D000140E1A6EF9EF08F0040E1B18D8A4F3EFE2
:1011E00008F0F5EF08F0F9EF08F0540E1A6EF9EF79
:1011F00008F01A501724186E1804196E1950800937
:10120000836E82928280000E1D6E000E1C6E1C4A40
:101210001D2A1D5009E1640E1C5CD8A012EF09F0D4
:1012200014EF09F007EF09F08290000E1D6E000E1A
:101230001C6E1C4A1D2A1D5009E1C80E1C5CD8A05A
:1012400024EF09F026EF09F019EF09F01200056EFE
:10125000000E046E000E036E0504D8A432EF09F0F0
:1012600034EF09F038EF09F0000E046E5FEF09F07B
:10127000020E0518D8A43FEF09F041EF09F045EF41
:1012800009F0400E046E5FEF09F0030E0518D8A4B4
:101290004CEF09F04EEF09F052EF09F0140E046E16
:1012A0005FEF09F0040E0518D8A459EF09F05BEFC1
:1012B00009F05FEF09F0540E046E5FEF09F004507F
:1012C0000124026E0204036E03508009836E829231
:1012D0008280000E076E000E066E064A072A07502F
:1012E00009E1640E065CD8A078EF09F07AEF09F006
:1012F0006DEF09F08290000E076E000E066E064A32
:10130000072A075009E1C80E065CD8A08AEF09F049
:101310008CEF09F07FEF09F01200000E0C6E0ABE90
:1013200096EF09F094EF09F09CEF09F0096C0A1EA2
:10133000D8B00A2A010E0C6E08BEA3EF09F0A1EF87
:1013400009F0A9EF09F0076C081ED8B0082A010EB1
:101350000C1A000E0E6E000E0D6E09500A10D8B455
:10136000B4EF09F0B6EF09F0DEEF09F0010E0B6EF5
:10137000BEEF09F0D89009360A360B2A0AAEC3EF41
:1013800009F0C5EF09F0BAEF09F0D8900D360E3626
:101390000950075C0A500858D8A0D1EF09F0D3EFE4
:1013A00009F0D8EF09F00950075E0A50085A0D807D
:1013B000D8900A3209320B2EC5EF09F00C50D8B480
:1013C000E4EF09F0E6EF09F0EAEF09F00D6C0E1E0C
:1013D000D8B00E2A0DC007F00EC008F01200000EA3
:1013E000066E02BEF8EF09F0F6EF09F0FEEF09F025
:1013F000016C021ED8B0022A010E066E04BE05EF73
:101400000AF003EF0AF009EF0AF0036C041ED8B0EB
:10141000042A03500410D8B410EF0AF012EF0AF0B7
:1014200036EF0AF0010E056E1AEF0AF0D890033677
:101430000436052A04AE1FEF0AF021EF0AF016EF7A
:101440000AF00350015C04500258D8A02AEF0AF0B9
:101450002CEF0AF030EF0AF00350015E0450025AFC
:10146000D89004320332052E21EF0AF00650D8B48A
:101470003CEF0AF03EEF0AF042EF0AF0016C021E68
:10148000D8B0022A01C001F002C002F01200000E22
:10149000246E000E246E5CEF0AF024501A241D6E98
:1014A000000E1B201E6E1DC0F6FF1EC0F7FF0800B9
:1014B000F550ACEC0AF0242AFF0E1D6EFF0E1E6ED6
:1014C0001C501F6E206A1D501F261E5020222450C3
:1014D000216E226A1F50215C2250800A236E205008
:1014E000800A2358D8A077EF0AF079EF0AF04DEF81
:1014F0000AF01200010E0F01386F000E396F000E56
:101500003A6F000E3B6FF282F288F18C93809494D4
:10151000829482940BEC08F0010E176E010EC1EC60
:1015200008F0010E1A6E100E1B6E140E1C6E47ECA6
:101530000AF01A0E266E5E0E256E6E0EE82EFED78F
:10154000252EFCD7262EFAD700D0D09EF28EF28C14
:10155000A8EF0AF06CEF00F0176E17C083FF8282CD
:101560008280000E196E000E186E184A192A195042
:1015700009E1640E185CD8A0C0EF0AF0C2EF0AF0CF
:10158000B5EF0AF08290000E196E000E186E184A20
:10159000192A195009E1C80E185CD8A0D2EF0AF038
:1015A000D4EF0AF0C7EF0AF01200016E01C083FF0A
:1015B00082828280000E036E000E026E024A032AAF
:1015C000035009E1640E025CD8A0E9EF0AF0EBEFEA
:1015D0000AF0DEEF0AF08290000E036E000E026E3B
:1015E000024A032A035009E1C80E025CD8A0FBEFAF
:1015F0000AF0FDEF0AF0F0EF0AF012002A6A296AF9
:10160000286A276A2B902B92000EF86E100EF76E48
:0616100000017AEF0AF070
:020000040020DA
:08000000FFFFFFFFFFFFFFFF00
:020000040030CA
:0E000000FF22193CFFA881FF0FC00FE00F4048
:00000001FF
